:020000040800F2
:10000000A00C00209D010008294E0008B13E000808
:10001000254E000861040008915600080000000009
:10002000000000000000000000000000514F000828
:10003000AD04000800000000794E0008554F00088C
:10004000B7010008B7010008B7010008B7010008B0
:10005000B7010008B7010008B7010008B7010008A0
:10006000B7010008B7010008B701000865040008DF
:10007000B701000871040008B7010008B7010008C3
:10008000B70100087D040008B7010008B7010008A7
:10009000B7010008B7010008B7010008B701000860
:1000A000B7010008B7010008B7010008B701000850
:1000B000B7010008B7010008B7010008B53E000805
:1000C000B7010008C13E0008B7010008B7010008E9
:1000D000B701000841560008B7010008B701000841
:1000E000B7010008B7010008B7010008B701000810
:1000F000B7010008B7010008B7010008890400082B
:10010000B7010008B7010008B7010008B7010008EF
:10011000B7010008B7010008B7010008B7010008DF
:10012000B7010008B701000895040008B7010008EE
:10013000B7010008B7010008B7010008B7010008BF
:10014000B7010008B7010008B7010008B7010008AF
:10015000B7010008B7010008A1040008B7010008B2
:10016000B7010008B7010008B7010008B70100088F
:10017000B7010008B7010008B7010008000000003F
:10018000B7010008B7010008DFF80CD000F01EF935
:1001900000480047B9580008A00C002006488047D6
:1001A00006480047FEE7FEE7FEE7FEE7FEE7FEE75C
:1001B000FEE7FEE7FEE7FEE70950000889010008B8
:1001C0002DE9F05F0546002092469B46884606468C
:1001D000814640241BE0284641464746224600F01F
:1001E000C7F853465A46C01A914110D311461846D3
:1001F000224600F0AEF82D1A67EB01084F46224662
:100200000120002100F0A5F817EB00094E41201E47
:10021000A4F10104DFDC484631462A464346BDE8E6
:10022000F09FD2B201E000F8012B491EFBD27047CB
:100230000022F6E710B513460A4604461946FFF7B2
:10024000F0FF204610BD2DE9FF5FD2E901A74FF076
:100250000008916999461446DDF838B04646019881
:100260008847054659EA0B0005D009E0A169761CCC
:10027000019888470546216A284688470028F5D115
:10028000681C03D05FEACA7005D015E04FF0FF305C
:1002900004B0BDE8F09F2068011D2160D0F8008007
:1002A0000AE05FEACA7001D108F8015BA169761C17
:1002B0007F1E019888470546002F1ADD681C18D05C
:1002C000B9F1000F0DD0E81705EBD060421120F016
:1002D0001F0059F822102A1A012090400142E0D153
:1002E00007E0BBF1000FDCD1216A284688470028CF
:1002F000D7D0E16901988847BBF1000F07D1002EE4
:1003000005DD5FEACA7002D1002188F80010A068FC
:10031000B84203DDBBF1000F03D017B16FF001004D
:10032000B6E73046B4E730B50B4601460020202240
:10033000012409E021FA02F59D4205D303FA02F5F2
:10034000491B04FA02F52844151EA2F10102F1DC52
:1003500030BD202A04DB203A00FA02F10020704769
:100360009140C2F1200320FA03F3194390407047F3
:10037000202A04DB203A21FA02F00021704721FAFA
:1003800002F3D040C2F12002914008431946704761
:1003900010B541000CD0C0F3C751962908DC7E2966
:1003A00009DC06DB410204D000F0004040F07E5042
:1003B00010BD002010BDC1F19604C4F1200100FA67
:1003C00001F1E04000F014F8A04010BD064C074DCC
:1003D00006E0E06840F0010394E807009847103415
:1003E000AC42F6D3FFF7D4FEF45E0008145F0008B9
:1003F0000029A8BF7047401C490008BF20F0010039
:10040000704710B4B0FA80FC00FA0CF050EA010416
:1004100004BF10BC704749B1CCF1200421FA04F4A8
:1004200011FA0CF118BF012121430843A3EB0C0181
:10043000CB1D4FEA00614FEA102042BF002010BCE4
:10044000704700EBC35010440029A4BF10BC704794
:10045000401C490008BF20F0010010BC704700009C
:10046000FEE7000040F22800C2F2000000F084B86D
:1004700040F2E800C2F2000000F07EB840F28800CE
:10048000C2F2000000F078B840F24810C2F200005A
:1004900000F072B840F2A810C2F2000000F06CB890
:1004A00040F20820C2F2000000F066B87047000079
:1004B000EFF3108072B600BFFEE7000070B5866DE6
:1004C000044600F027FB94F83510022928D1054690
:1004D0002068216C026822F016020260426922F054
:1004E0008002426109B9A16C19B1016821F00801CB
:1004F0000160016821F00101016000BF206800680F
:10050000C00715D000F006FB401B0628F6D32020BC
:100510006065032084F83500002184F8341070BD34
:10052000802060650120002184F8341070BD00BF78
:10053000E06D3F2101FA00F0B060012084F8350041
:100540000020002184F8341070BD000090F83510B0
:10055000022909D1052180F835100068016821F0D1
:100560000101016000207047802141650120704732
:1005700090F8350070470000F0B581B004460020C7
:10058000009040F22000C2F200000268D4E9166038
:1005900048F2B51337680821C1F64E33814039421D
:1005A000A2FB03250CD0226813685B0708D51368EB
:1005B00023F004031360B160616D41F001016165D6
:1005C00001218140394208D022685269120604D5BF
:1005D000B160616D41F002016165042181403942E1
:1005E00008D022681268920704D5B160616D41F0AD
:1005F0000401616510218140394217D020680268EA
:10060000120713D5B16002680168520308D4C90506
:1006100008D4016821F008010160216C21B905E0CE
:1006200008033FD4216C09B120468847E16D2020A2
:1006300000FA01F23A4241D020680368DB063DD55A
:10064000B26094F835300268052B1BD122F01602F7
:100650000260426922F080024261226C0AB9A26CF7
:100660001AB1026822F0080202603F208840B060A0
:10067000012084F83500216D0020002984F8340021
:1006800052D157E00168520310D4C90512D4016851
:1006900021F010010160012084F83500002084F869
:1006A000340007E0A16C0029BED1BFE7080301D4E4
:1006B000616C00E0E16B09B120468847606DC8B30A
:1006C000606DC0072ED0052084F835002068A90A87
:1006D000026822F001020260009A01328A4200920E
:1006E0001AD80268D20717D0009A01328A420092C3
:1006F00012D80268D2070FD0009A01328A420092C3
:100700000AD80268D20707D0009A01328A420092C2
:1007100002D80268D207DFD1012084F8350000201A
:1007200084F83400E16C29B1204601B0BDE8F04006
:10073000084700BF01B0F0BD2DE9F041044600F0CC
:10074000E9F9ECB10546022084F835000020216863
:1007500084F83400086820F0010008602168086807
:10076000C00711D000F0D6F9401B0528F6D90325A3
:1007700020230320636584F83550BDE8F08100BF75
:100780000120BDE8F08100BF086848F23F02CFF2C7
:100790001002D4E9013500EA020C04F10C0898E8D3
:1007A000C10143EA0C032B431843D4E9072E30431D
:1007B00038431043626A40EA0E00042A40EA080304
:1007C0001CD1206BD4E90A2E40EA0E0018430860C1
:1007D0004869BEF1000F20F0030040EA020040F03B
:1007E000040C11D0B8F5005F36D0B8F1000F45D138
:1007F000022A46D0012A3BD032B942E00B60486958
:1008000020F0070040EA020C01F0F8004AF6AB22A3
:100810001038CAF6AA22A0FB02231A0945F6D863AB
:10082000C0F600039A5C40F2FF335F284FF03F00B0
:10083000C1F814C021EA030100FA02F088BF0431B4
:10084000C4E916128860002301250020636584F83E
:100850003550BDE8F08100BF032AD5D801254023DB
:100860000120DFE802F0030E030500BF82E700BFAE
:10087000AEF1C070B0FA80F0400904E0032A04D35E
:10088000C2D1CEF300600028BED001254023012054
:10089000636584F83550BDE8F081000070B590F8CC
:1008A00034C0BCF1010F46D04FF0010C80F834C0C9
:1008B000D0F858E090F835C0BCF1010F38D14FF0B6
:1008C000020C80F835C04FF0000CC0F854C0D0F8CE
:1008D00000C08468056CC06DDCF80060402C26F414
:1008E0008026CCF80060CCF804300B4604BF1346D9
:1008F0000A463F2101FA00F0CCF80830CCF80C2071
:10090000CEF80800DCF8000040F01600CCF800003B
:100910002DB1DCF8000040F00800CCF80000DCF855
:10092000000040F00100CCF80000002070BD00BFC6
:10093000002180F83410022070BD0000B0B50446DC
:1009400000F0E8F8054640F20400C2F2000000782A
:10095000611C18BF044400BF00F0DCF8401BA0423B
:10096000FAD3B0BD2DE9F04F82B000F13E4241F61E
:10097000004502F1FF77C4F20205082243F6004E5B
:100980004FEAB726A84208BF0722C4F2010E072E7D
:1009900038BF4FEAB7220125002600274FF0000894
:1009A000009208E008F101080437B8F1100F06F1D1
:1009B000020600F0A5800C6805FA08F914EA090F90
:1009C000F0D0D1F804B003220BF0030CACF1010419
:1009D000B240012C6FEA020A10D88268CC6802EAA1
:1009E0000A02B440224382604268CBF3001422EA38
:1009F000090204FA08F42243426005E0BCF1030F47
:100A000002D14FF0030C20E0C2688C6802EA0A02AF
:100A1000B4402243BCF1020FC26016D16FF0030252
:100A200002EA58020244D2F820C007F01C050F2346
:100A30000C69AB402CEA030304FA05F52B4313625F
:100A4000D1F804B001250BF0030C02680CFA06F390
:100A500002EA0A021A431BF4403F0260A2D00022BD
:100A600043F644030192C4F202031A684FF6084C9D
:100A700042F480421A601A68CFF6FF7C02F480428A
:100A80000192019A28F00302724452F80C3007F0E8
:100A90000C050F24AC40A343009C04FA05F52B433E
:100AA00042F80C30DEF800204B6842EA0905DC030E
:100AB00058BF22EA0905CEF80050DEF804209C0356
:100AC00042EA090558BF22EA0905CEF80450DEF8CB
:100AD0000820DC0242EA090543F60C4458BF22EA2A
:100AE0000905CEF80850C4F2010422689B0242EACC
:100AF000090558BF22EA09052560012552E700BF14
:100B000002B0BDE8F08F0000002A08BF090481612F
:100B10007047000040F69800C2F20000006870477D
:100B20007047000070470000F0B581B007680446C8
:100B30007868E26A94F83E3094F83DE0402B01D0AA
:100B4000102B27D1BE697D69E90751D1B2F12A4F37
:100B500000F0A082B2F52A0F00F09C8200F400722F
:100B60004FF0010C29078CEA522C45D5002A43D0BE
:100B7000606B616CC9B2396118B1C06B002840F07C
:100B80002481A06B002800F08582C06B002840F013
:100B90001C817FE2216C00F4007300290CBFBE6948
:100BA00000267D69A90753D5002B51D0206C002861
:100BB00018BFBE6994F83D0000F02800282840F0D6
:100BC00093807868002320F480607860012020EA18
:100BD000960130064FF0180058BF0C20225A2046CC
:100BE00084F83C3001B0BDE8F040FFF79BBF00BF88
:100BF000810557D44FF0010CA90759D5BCF1000F5E
:100C000056D194F83E30E06A226B94F83D102229C8
:100C100040F0E280216D002908BF402B00F0DC800D
:100C2000216D002940F032812169B1F5404F40F03B
:100C30002D810020009078690090B869009000989C
:100C4000386840F480703860206D01306BE200BF7E
:100C5000E90655D5002B53D094F83D50786820F420
:100C6000E06078600020009078690090386840F07B
:100C7000010038600098386820F480603860786837
:100C8000000540F1408105F0F7002646222840F09B
:100C9000198156F8380F0168496826F80E1C36F895
:100CA0000E1C17E1E06AB0F52A0F5FD1012062E067
:100CB0007968720701F4006100F19880002940F022
:100CC000E981690605F0040140F1AC8110F480600F
:100CD00000F0A881002940F0A581204601B0BDE8C0
:100CE000F04003F0BFBA00BF002000907969009186
:100CF000B9690091009984F83C0001B0F0BD00BFD3
:100D00000EF0F70100F48062212905F0040040F0A4
:100D10008380290640F14881002A00F0458100289F
:100D200040F0428194F83D00618D002900F0B281CD
:100D3000616A11F8012B3A616162618D0139618547
:100D4000618D002908BF292840F0A48178682821F6
:100D500020F48060786021202063204684F83D10D4
:100D600001B0BDE8F04001F0F3B900BFE06AB0F1B6
:100D70002A4F01D10820E06294F83E0040280BD1B0
:100D8000206D616C002801F0FE0018BF40F00100EA
:100D9000386101B0F0BD00BF2069B0F5804F65D16A
:100DA00094F83D00616C212801F0FE0118BF01316B
:100DB0003961606B08B1C06B38B9A06B002800F0D6
:100DC0006981C06B002800F06581786840F400609C
:100DD000786001B0F0BD00BF0020009078690090FD
:100DE000B8690090009801B0F0BD00BF002940F044
:100DF0005181290605F0040140F1208110F4806042
:100E000000F01C81002940F01981204601B0BDE8A6
:100E1000F04003F005BB00BF690640F1D780002A0F
:100E200000F0D480002840F0D18094F83D00618D1E
:100E3000002900F02F813969626A1170616A0131FD
:100E40006162618D01396185618D002908BF2A28A1
:100E500040F020812068416821F4806141602220B7
:100E600028212063204684F83D10D6E0206D00281C
:100E700000F0BE80206D012840F00C81606C0621DE
:100E800001EAD010F130386101B0F0BD618D61B17F
:100E9000618D012940F0E280202818BF082840F029
:100EA000FB80386820F4806038600020009078690A
:100EB0000090B86900900098386840F4007038607D
:100EC00030E100BF56F8340F0168496826F80A1C63
:100ED00036F80A1C19B1216C41F0040121647968CB
:100EE00021F400617960FFF743FB01280BD03068E3
:100EF00043F6CD61C0F600010165FFF727FB10B195
:100F00003068016D8847608D60B12068416949078C
:100F100030D4416949063AD4608D18B1206C40F054
:100F200004002064206C28B1204601B0BDE8F040E8
:100F300003F05EB82A2D07D100202063282084F812
:100F40003D00204601F002F994F83D00282857D1D1
:100F50000020CFF6FF70E06200212020216384F89A
:100F60003D00204684F83E1001B0BDE8F04000F09E
:100F7000B3BA00BF0069616A0870616A2068013114
:100F80006162618D0139618541694906C4D5006995
:100F9000616A0870606A01306062608D0138608546
:100FA000608D0028BAD1BDE7002818BF002B71D092
:100FB000608D00286ED0606A10F8011B3961606294
:100FC000608D0138608501B0F0BD00BF002818BFFA
:100FD000002B5FD0608D00285CD03869616A087092
:100FE000606A01306062608D0138608552E000BF48
:100FF000606C062101EAD010F030386101B0F0BD1C
:10100000206B222818BF222D44D1002120202163EB
:1010100084F83D00204684F83E1001B0BDE8F04061
:1010200001F094B8B1FA81F0400950EA0C0031D1D6
:10103000204601B0BDE8F04003F0A0B8B1FA81F05D
:10104000400950EA0C0025D1BEF1210F1AD12046EB
:1010500001B0BDE8F04003F0A1B900BF618D0229E5
:101060000CD110283CD8012114228140C0F2010289
:10107000114235D04FF4806238E000BF396841F446
:10108000806135E0402B05D1204601B0BDE8F0403D
:1010900003F020BA01B0F0BD10F5803F0CD13868E4
:1010A00020F480603860786800057FF5FEAE38680F
:1010B00020F4806038602EE0122A02D101287FF4EB
:1010C000F0AE1028F3D8012101FA00F01421C0F28B
:1010D00001010842EBD0386840F4806038601AE0C3
:1010E00039684FF4006221F4806139603968114336
:1010F0003960796809050ED5421E1F2A16D80121CC
:10110000914048F28102C8F2000211420ED0786884
:1011100040F4805078600020009078690090B869B1
:10112000009000980020206501B0F0BD10F5803FD0
:10113000EDD0F0E77047000070B5B8B3044690F802
:101140003D0028B9002084F83C00204600F00CFF48
:10115000242084F83D002068016821F0010101602D
:10116000016841F400410160016821F4004101601F
:1011700001F05AF948F28041C0F21E0140F6001316
:10118000D4F804E088424FF00001C0F23D0348F279
:10119000A16C4FF0000238BF01219842C0F2010C4F
:1011A00038BF0122E64538BF0A460AB1012070BDAA
:1011B0004DF68361C4F21B31A0FB01122168950C2E
:1011C0004B684FF4967623F03F0343EA924375430E
:1011D00044F6D3564B60C1F262060B6AA5FB065675
:1011E000B50923F03F03E64538BF950C6A1C1A4346
:1011F0000A62CA6948F2A0664CF6FF73C0F20106A3
:10120000B64522EA03020BD801384FEA4E03B0FB81
:10121000F3F001306FF31F30042898BF04201EE064
:10122000A368013863B119230EFB03F3B0FBF3F09D
:1012300001306FF31F3078B100F5804008E000BF47
:101240000EEB4E03B0FBF3F001306FF31F3028B10B
:1012500000F5004003E000BF012000E00120104342
:10126000C8610868D4E9072320F0C0001043184380
:101270000860886848F2FF3204F10C0690434CCEB7
:1012800018431043A5698860C86820F0FF00304308
:101290002843C860086840F0010008600020202151
:1012A000206484F83D10206384F83E0070BD000087
:1012B0002DE9F04F81B01D4690460E460446FFF7DB
:1012C00029FC94F83D10202918D107462168886927
:1012D00080070FD5FFF71EFCC01B1928F6D9002088
:1012E0002021206384F83D1084F83E00216C022503
:1012F000C1E000BF94F83C00012805D10225284632
:1013000001B0BDE8F08F00BF012084F83C00086800
:10131000C00703D1086840F001000860086806F0C3
:10132000FE0920F400600860242084F83D000020BD
:1013300020640020CFF6FF70012605F1010A4FF06E
:10134000A00BE062B8F1020F98BF4FF002080868E6
:1013500040F4807008604869C0070FD1BAF1000FEF
:1013600056D0002D00F09C80FFF7D4FBC01BA84294
:1013700000F2988021684869C007F5D0C1F8109044
:10138000FFF7C8FB21684B694A6994F83D70A02FAC
:1013900007461ED013F0020008BF12F4806018D177
:1013A000FFF7B8FB35B1C01BA84288BF84F83DB039
:1013B00002E000BF84F83DB021684A69486994F8AA
:1013C0003D30A02B05D012F0020208BF10F480605F
:1013D000E6D0202084F83D0048690A68800742F47E
:1013E00000720A6022D46FF48060486188698007C7
:1013F00009D500BFFFF78EFBC01B192832D8216822
:1014000088698007F6D401364645A0D13CE000BF8C
:101410004869C007B2D14869C00704BF48695FEA9C
:10142000C070ABD14869C007F2D0A7E7002500958E
:10143000486900908869009000988869800708D5FD
:10144000FFF768FBC01B19280CD82068806980074B
:10145000F6D4202084F83D0084F83C50284601B0A2
:10146000BDE8F08F00202021206384F83D1084F82F
:101470003E00216C012541F02001216484F83C00EC
:10148000284601B0BDE8F08F202084F83D00002000
:10149000012584F83C00284601B0BDE8F08F00BF6C
:1014A000FFF738FB00202021206384F83D1084F8EA
:1014B0003E00216C032541F020012164216884F85D
:1014C0003C000868C00544BF4FF400702064284603
:1014D00001B0BDE8F08F00007047000070470000C9
:1014E000704700002DE9F04182B01F46164688463D
:1014F0000446FFF70FFB94F83D1020291CD1054648
:1015000020688169890713D5FFF704FB401B192860
:10151000F6D900202021206384F83D1084F83E0095
:10152000216C41F02001216484F83C0004E000BFFC
:1015300094F83C10012903D1022002B0BDE8F081EB
:10154000012184F83C100168C90703D1016841F00A
:1015500001010160016821F400610160222184F829
:101560003D10102184F83E100021216466626785D9
:10157000618D21850021CFF6FF71E162E16A026889
:1015800011F5803F42F48062026018BF012919D131
:10159000016841F4807101604169089EC90724D146
:1015A000711C18D0002E00F0CB8000BFFFF7B2FAFC
:1015B000401BB04200F2C68020684169C907F5D0DF
:1015C00013E000BF0829E3D0216B1129E0D0E3E745
:1015D0004169C90709D14169C90706D14169C907EC
:1015E00004BF41695FEAC171F2D02169B1F5804F52
:1015F00008D148F00101C9B201614169890740F190
:10160000CC8003E1062101EAD81707F1F00101615E
:101610004169090738D44169721C01F4806113D013
:10162000002940F0EA80002E00F01082FFF772FAE5
:10163000401BB04200F20C8220684169090723D4A4
:1016400041694905F2D5D8E0002940F0D6804169CA
:10165000090719D44169490500F1CF80416909079B
:1016600012D44169490500F1C880416909070BD4CA
:101670004169490500F1C1804169090704D4416904
:101680004905E4D5B9E000BF5FFA88F1016141691D
:10169000890739D44169721C01F4806114D0002992
:1016A00040F0AB80002E00F0D181FFF733FA401BF1
:1016B000B04200F2CD8120684169890724D4416994
:1016C0004905F2D599E000BF002940F096804169B4
:1016D000890719D44169490500F18F80416989075B
:1016E00012D44169490500F18880416989070BD40A
:1016F0004169490500F181804169890704D4416944
:101700004905E4D579E000BF0021019141690191CB
:10171000816901910199016841F480710160416919
:10172000C90734D1711C28D056B1FFF7F3F9401B1B
:10173000B04207D820684169C907F6D027E000BF4A
:10174000FFF7E8F900202021206384F83D1084F899
:101750003E00216C41F020012164216884F83C00A6
:101760000868C00544BF4FF400702064012002B037
:10177000BDE8F0814169C90709D14169C90706D1AE
:101780004169C90704BF41695FEAC171F2D047F0FE
:10179000F10101614169890738D44169721C01F482
:1017A000806111D049BB002E00F05081FFF7B2F9E3
:1017B000401BB04200F24C8120684169890725D462
:1017C00041694905F2D518E0B9B9416989071DD4C5
:1017D0004169490511D44169890717D4416949050F
:1017E0000BD44169890711D44169490505D4416980
:1017F00089070BD441694905E7D5016841F40071B7
:1018000001606FF480614161042022E1218D99B172
:10181000022927D001292DD1026822F480620260BA
:10182000002201924269019282690192019A026842
:1018300042F40072026028E00021019141690191A7
:10184000816901910199016841F4007101602020D2
:1018500084F83D00002084F83E0084F83C0002B08B
:10186000BDE8F081026822F480620260026842F4FE
:10187000006202E0026842F480620260002201928B
:101880004269019280690190019888B2032817D8B3
:1018900002283FD0012851D1002E00F09980206805
:1018A000014651F8142F520600F196800868C006D0
:1018B00000F1F280FFF72EF9401BB042EFD9E0E0D3
:1018C00086B100BF2068014651F8142F52060ED48D
:1018D0000868C00600F1E080FFF71CF9401BB04229
:1018E000F0D9CEE020684169490640F1C380006923
:1018F000616A0870606A218D01300139606221855A
:101900002268638D013B638553695B0770D511695C
:10191000017064E020684169490745D4711C6BD0AF
:10192000002E00F0CD80FFF7F5F8401BB04200F22A
:10193000C980206841694907F5D535E020684169CB
:1019400049070ED4711C65D0002E00F0B980FFF756
:10195000E1F8401BB04200F2B580206841694907B8
:10196000F5D5016821F4806101600069616A087041
:10197000606A218D01300139606221852068618DA6
:1019800001396185416949070ED4711C50D0002E80
:1019900000F09680FFF7BEF8401BB04200F2928044
:1019A000206841694907F5D5016841F4007101607B
:1019B0000069616A0870606A2268411C6162218D59
:1019C00001392185618D013961851169417006E018
:1019D0002068416949064DD50069616A0870606AEE
:1019E000218D0130013960622185608D013860856B
:1019F00008047FF44AAF2AE741694907D4D4416912
:101A000049075CBF41695FEA4171CDD4416949072B
:101A1000F2D5C9E741694907A3D4416949075CBFC9
:101A200041695FEA41719CD441694907F2D598E761
:101A300041694907B8D4416949075CBF41695FEA18
:101A40004171B1D441694907F2D5ADE7FFF762F8BA
:101A5000202000212022216384F83D2084F83E10BC
:101A6000226C1043206484F83C10012002B0BDE8D1
:101A7000F08100BF50F8141FC90601460CD4FFF7CF
:101A800049F800202021206384F83D1084F83E00AE
:101A9000206C40F020000AE06FF010000860002089
:101AA0002021206384F83D1084F83E00206C2064DF
:101AB000002084F83C00012002B0BDE8F08100BFA6
:101AC000FFF728F800202021206384F83D1084F8D7
:101AD0003E00216C41F02001216484F83C0001208B
:101AE00002B0BDE8F08100002DE9F04381B01F464F
:101AF000164688460446FFF70DF894F83D10202955
:101B000020D1054620688169890717D5FFF702F8BB
:101B1000401B1928F6D900202021206384F83D10AD
:101B200084F83E00216C022641F02001216484F8F3
:101B30003C00304601B0BDE8F08300BF94F83C1093
:101B4000012905D10226304601B0BDE8F08300BF6F
:101B5000012184F83C100168C90703D1016841F0F4
:101B600001010160016821F400610160212184F814
:101B70003D10102184F83E100021216466626785C3
:101B8000618D21850021CFF6FF71E162E16A11F5D7
:101B9000803F18BF012919D1016841F480710160AB
:101BA0004169DDF82090C90723D119F1010116D050
:101BB000B9F1000F46D000BFFEF7ACFF401B48450F
:101BC00042D820684169C907F6D012E00829E3D05D
:101BD000216B1229E0D0E3E74169C90709D14169C6
:101BE000C90706D14169C90704BF41695FEAC171EC
:101BF000F2D02169B1F5804F02D1FE2161E000BF32
:101C0000062101EAD811F03101614169090757D471
:101C1000416919F1010201F480612FD0002946D1F8
:101C2000B9F1000F00F04281FEF774FF401B4845F8
:101C300000F23E8120684169090741D441694905A4
:101C4000F2D534E0FEF766FF00202021206384F8FF
:101C50003D1084F83E00216C012641F020012164F2
:101C6000216884F83C000868C00544BF4FF4007048
:101C70002064304601B0BDE8F08300BFB9B94169C6
:101C800009071DD44169490511D44169090717D4D1
:101C9000416949050BD44169090711D441694905D6
:101CA00005D4416909070BD441694905E7D50168A5
:101CB00041F4007101606FF4806141610420F8E03B
:101CC000FF2101EA08010161416989073AD44169AC
:101CD00019F1010201F4806112D051BBB9F1000F7A
:101CE00000F0E080FEF716FF401B484500F2DC8064
:101CF00020684169890725D441694905F2D518E072
:101D0000B9B9416989071DD44169490511D44169AF
:101D1000890717D4416949050BD44169890711D452
:101D20004169490505D4416989070BD441694905D1
:101D3000E7D5016841F4007101606FF48061416191
:101D40000420B6E000260096416900918169009167
:101D50000099218D002900F0958009F101080146C4
:101D600051F8142F120635D4B8F1000F16D0B9F17E
:101D7000000F00F0AF8000BF0868400500F1B2809E
:101D8000FEF7C8FE401B484500F2A98020680146C6
:101D900051F8142F1206EFD51CE000BF0A68520557
:101DA00000F1A0800A68120614D40A68520500F1F6
:101DB00099800A6812060DD40A68520500F19280D3
:101DC0000A68120606D40A68520500F18B800A6878
:101DD0001206E3D5636A194611F8012B02616162AC
:101DE000618D01396185278D0146A7F1010CA4F8A9
:101DF00028C051F8142F52070DD55FEA0C420AD0C3
:101E00005A78A7F1020C02619A1C6262628D013A53
:101E10006285A4F828C00A6852072FD4B8F1000FD1
:101E200014D0B9F1000F7BD00868400500F1808024
:101E3000FEF770FE401B484577D82068014651F8F0
:101E4000142F5207F0D5B4F828C017E00A685205DD
:101E50006ED40A68520711D40A68520568D40A6819
:101E600052070BD40A68520562D40A68520705D497
:101E70000A6852055CD40A685207E7D55FEA0C414C
:101E80007FF46DAF016841F400710160202084F897
:101E90003D0084F83E6084F83C60304601B0BDE807
:101EA000F08300BFFEF736FE202002E0FEF732FE90
:101EB000202000212022216384F83D2084F83E1058
:101EC000226C01261043206484F83C10304601B097
:101ED000BDE8F0830868400504D4FEF71BFE20200F
:101EE00004E000BF6FF4806008600420002120221D
:101EF000216384F83D2084F83E10226C1043206456
:101F000084F83C10206C042825D120680126016843
:101F100041F400710160304601B0BDE8F08300BFBC
:101F20000868400504D4FEF7F5FD202004E000BF5A
:101F30006FF480600860042000212022216384F86F
:101F40003D2084F83E10226C1043206484F83C103D
:101F5000206C0428D9D00126304601B0BDE8F083BA
:101F600070470000704700002DE9F04387B0044639
:101F7000006845F60001C4F2000100268842CDE960
:101F80000566CDE9036602966CD045F20041C4F2C5
:101F90000001884240F0D680002643F630050196C5
:101FA000C4F20205286846F2100840F002002860DA
:101FB000286802A900F0020001900198C020029058
:101FC0001220039001200490032005900420069025
:101FD00040F20040C4F20200C4F20208FEF7C2FC64
:101FE000019628694FF0007740F4001028612869B5
:101FF00040F2280500F4001001900198C2F200059B
:102000004FF480692846C5E90087C5E90266C5E93D
:102010000496C5E90666C5E90866FEF78DFB00284B
:1020200018BFFEF745FAA563AC6340F2880508F1D6
:102030009000C2F200054021C5E9000705F1080043
:1020400080E842022846C5E90566C5E907666E6272
:10205000FEF772FB00284FF01F0618BFFEF728FAA4
:1020600066E000BF43F630050196C4F20205286819
:10207000122140F020002860286846F2100800F085
:102080002000019001980320039101210290CDE9E5
:1020900004100420069040F20040C4F2020000F553
:1020A000805002A9C4F20208FEF75CFC0196286980
:1020B0004FF0606740F480002861286940F2E8052D
:1020C00000F480000190019808F13000C2F2000590
:1020D0004FF48069C5E900072846C5E90266C5E9ED
:1020E0000496C5E90666C5E90866FEF725FB0028E3
:1020F00018BFFEF7DDF9A563AC6340F2481508F19F
:10210000A800C2F200054021C5E9000705F108005A
:10211000002280E806022846C5E90522C5E9072213
:102120006A62FEF709FB4FF0210608B1FEF7C0F91D
:102130003046002100226563AC6300F089F8304628
:1021400000F072F807B0BDE8F083000070470000AF
:102150007047000040F2040040F69801C2F200000F
:10216000C2F2000100780A6810440860704700005D
:1021700080B543F60040C4F20200016841F40071EA
:102180000160016841F480610160016841F480717F
:102190000160032000F088F80F2000F005F800F03F
:1021A00027F8002080BD000070B540F20406C2F29E
:1021B000000640F220013278C2F200014FF47A7337
:1021C0000968B3FBF2F20446B1FBF2F1084600F0F5
:1021D00043FB0F2C4FF0010508D838B94FF0FF3002
:1021E00021460022002500F033F87460284670BDB7
:1021F00082B0002043F640010190C4F202014A6817
:1022000042F480424A604A6802F480420192019A94
:102210000090086840F080500860086800F0805026
:102220000090009802B07047002848BF7047C1B2C4
:1022300000F01F00012202FA00F04EF20012CEF26E
:10224000000242EAD10121F003010860704700005A
:1022500010B54EF60C5CCEF2000CDCF80030C3F387
:10226000022E8EF00704042C28BF0424BEF10303C1
:102270004FF0FF3E0EFA04F438BF0023A14399400B
:102280000EFA03F39A43114300F00F0200F160438A
:102290000901043A03F564436244002848BF02F18F
:1022A0000C03197010BD00004EF60C51CEF2000167
:1022B0000A684FF6FF031A4060F30A2242F080607A
:1022C00040F0FD70086070472DE9F041002800F0F3
:1022D0008B8043F60808C4F202080446D8F8F803D5
:1022E0000D4600F00700884207D288F8F853D8F866
:1022F000F80300F00700A84276D12068810717D5BF
:10230000410705D5D8F8001041F4E051C8F8001095
:10231000010705D5D8F8001041F46041C8F8001055
:10232000D8F80010A26821F0F0011143C8F800109D
:10233000C0073FD1D8F8F80300F00700A84207D93A
:1023400088F8F853D8F8F80300F00700A8424BD1FA
:102350002068410707D5D8F80010E26821F4E05161
:102360001143C8F80010000708D5D8F8000021690B
:1023700020F4604040EAC100C8F8000000F07CF89A
:10238000D8F8001045F6C062C1F30311C0F6000290
:10239000515C40F2200220FA01F140F20800C2F242
:1023A00000000068C2F200021160FFF7FDFE00208D
:1023B000BDE8F0816068811E022907D258F8081C28
:1023C00089015CBF0120BDE8F08111E0012807D13F
:1023D00058F8081C89035CBF0120BDE8F08107E0C4
:1023E00058F8081C890703D40120BDE8F08100BF1C
:1023F000D8F8001021F003010843C8F80000FEF7E8
:1024000089FB064641F28837D8F80000616800F081
:102410000C00B0EB810F8DD0FEF77CFB801BB84227
:10242000F2D90320BDE8F08140F2200043F6080114
:10243000C2F20000C4F202010068096845F6D062E9
:10244000C1F38221C0F60002515CC8407047000011
:1024500040F2200043F60801C2F20000C4F202017B
:102460000068096845F6D062C1F34231C0F6000247
:10247000515CC8407047000010B543F60404C4F234
:102480000204606800F00C0008280BD0042819BF73
:1024900042F20040C0F2F40047F64000C0F27D1066
:1024A00010BD00BF206821682368490247F640013B
:1024B000C0F27D1100F03F02C3F388105CBF42F20E
:1024C0000041C0F2F401A1FB00010023FDF778FEFA
:1024D00021680222C1F3014102EB4101B0FBF1F09E
:1024E00010BD00002DE9F04182B0002868D00446FC
:1024F000007843F60006C007C4F202060BD0B068AD
:1025000000F00C00042840F09F803068800302D562
:102510006068002854D0207880071AD5B06810F081
:102520000C0F09D0B06800F00C00082840F0A6801D
:102530007068400200F1A2803068800702D5E06830
:1025400001283DD13068216920F0F80040EAC1003F
:1025500030602078000737D4207840074CD4A56934
:1025600055B3B06800F00C00082840F0BB80012D86
:1025700026D07068E16900F480028A4220D1216A85
:1025800000F03F028A421BD147F6C071626A0140E7
:10259000B1EB821F14D1A16A4FF6FF73C9039943AF
:1025A00000F44032A1F580318A4209D1E16A00F09D
:1025B0007060B0EB016F03D1002002B0BDE8F08184
:1025C000012002B0BDE8F0816069002840F20000FF
:1025D000C4F2472076D00121C0F8801EFEF79AFA97
:1025E000054600BF706F8007B6D4FEF793FA401B14
:1025F0000228F7D9DDE000BF306C10F080580AD116
:1026000000200190306C40F080503064306C00F05D
:1026100080500190019847F20007C4F20007386823
:10262000C00541D4386840F480703860FEF772FA13
:10263000054600BF3868C00536D4FEF76BFA401B6C
:102640000228F7D9B5E000BFB06800F00C000828F8
:1026500003D1706840023FF558AF6068B0F5803F25
:1026600007D0B0F5A02F40F08D80306840F4802076
:102670003060306840F4803030608DE0E0680028E1
:1026800052D00020C4F2472001210160FEF742FA37
:10269000054600BF306880073FF554AFFEF73AFAB1
:1026A000401B0228F6D984E0A068012805D005283F
:1026B0004ED1306F40F004003067306F40F00100C1
:1026C00030674FE00021C0F8801EFEF723FA054670
:1026D000706F80077FF540AFFEF71CFA401B0228A1
:1026E000F6D966E00027C4F2472700203866FEF7D7
:1026F00011FA022D05460BD1306880015ED5FEF738
:1027000009FA401B02284FF00300F5D955E700BF36
:10271000306880017FF550AFFEF7FCF9401B0228BE
:102720004FF00300F4D948E70020C4F2472000210D
:102730000160FEF7EFF90546306880077FF509AFC5
:10274000FEF7E8F9401B02284FF00300F4D934E704
:10275000316F002821F001013167316F21F0040150
:1027600031674DD0FEF7D6F9054641F2883700BFF4
:10277000306F800756D4FEF7CDF9401BB842F7D929
:1027800017E000BF3168002821F4803131603168E2
:1027900021F4802131604FD0FEF7BCF9054600BF1F
:1027A000306880033FF5B7AEFEF7B4F9401B6428EC
:1027B000F6D9032002B0BDE8F08100BF04F11C058A
:1027C0002FCD084340EA8210D9034FF6FF729143A0
:1027D000A1F5803140EA0560084370600120386649
:1027E000FEF798F9044600BF306880013FF5E4AE7B
:1027F000FEF790F9001B02284FF00300F4D9DCE645
:10280000FEF788F9054641F2883700BF306F800730
:1028100008D5FEF77FF9401BB8424FF00300F5D909
:10282000CBE600BFB8F1000F7FF499AE306C20F01A
:102830008050306493E600BFFEF76CF9054600BF98
:10284000306880037FF567AEFEF764F9401B6428AB
:102850004FF00300F4D9B0E6411E0020B0EB116F39
:102860001CBF012070474EF21002CEF200025160F0
:102870004EF62351CEF20001F0230B700721906039
:1028800011607047B0B590F83C20012A04BF0220C7
:10289000B0BD01F108053CCDD1E900CE23F47C5355
:1028A00022F470521A432EF4F0431A432CF4E043FE
:1028B0001A4324F4C0431A432A43C96922F48042CC
:1028C000036811435964002180F83C100846B0BDEC
:1028D00010B590F83C20012A4FF0020251D080F848
:1028E0003D200268D2F804E0D2F808C00C682EF04F
:1028F0007003234341F2FF74C4F20004A242536008
:102900000EDC40F2FF73C4F200039A4216DCB2F10F
:10291000804F2BD040F20043C4F2000324E000BFFC
:1029200040F2FF33C4F201039A4213DC41F6000384
:10293000C4F200039A4219D0002313E040F60003CA
:10294000C4F200039A4211D040F60043C4F20003DF
:102950000AE000BF44F20003C4F201039A4205D02A
:1029600040F20043C4F201039A4204D149682CF0BA
:102970008003194391600121002280F83D1080F806
:102980003C20104610BD0000002804BF0120704705
:1029900010B5044690F83D0028B9002084F83C00AA
:1029A000204600F01FF8022084F83D002068211D19
:1029B00002F034FB012084F8460084F83E0084F8DD
:1029C0003F0084F8400084F8410084F8420084F815
:1029D000430084F8440084F8450084F83D0000205A
:1029E00010BD000081B0006841F60041C4F2000152
:1029F000884201D001B070470020009043F64000AB
:102A0000C4F20200016841F080010160006800F03A
:102A100080000090009801B070470000F0B587B0CA
:102A2000006841F6FF31C4F2000188424FF0000116
:102A30000691CDE90411CDE9021141DC40F2FF71AC
:102A4000C4F20001884267DCB0F1804F00F0B8802A
:102A500040F20041C4F20001884240F03F8100256D
:102A600043F630000195C4F202000168002441F0F1
:102A7000010101600168C4F2020401F00101019149
:102A8000019901950168022641F002010160006888
:102A900002A900F0020001900198C0200290204697
:102AA000CDE90365CDE90556FDF75CFF0320CDE9CF
:102AB0000206CDE90455069604F580600BE100BFDF
:102AC00040F2FF31C4F2010188424DDC41F6004181
:102AD000C4F20001884200F0A5800021C4F2010187
:102AE000884240F0FB80002043F630010190C4F2A0
:102AF00002010A6842F010020A60096801F0100140
:102B0000019101994FF4D44102910221CDE90310C2
:102B1000059001204CE000BF40F60001C4F2000126
:102B2000884200F09D8040F60041C4F200018842D6
:102B300040F0D480002043F630010190C4F202013D
:102B40000A6842F001020A60096801F0010101917E
:102B500001990F2102910221CDE90310CDE9050170
:102B60000020C4F20200B6E040F20041C4F20101CC
:102B7000884200F0938044F20001C4F201018842CF
:102B800040F0AC80002043F630010190C4F2020115
:102B90000A6842F010020A60096801F01001019110
:102BA0000199202102910221CDE903100590032013
:102BB00006900020C4F2020000F580508BE000BFB8
:102BC000002543F630000195C4F20200016800249C
:102BD00041F0010101600168C4F2020401F0010149
:102BE0000191019901950168022641F002010160FD
:102BF0000068012700F00200019001982020029057
:102C000002A92046CDE9036505950697FDF7AAFEC2
:102C100040F60840CDE90206CDE90455069704F5D3
:102C2000806058E0002043F630010190C4F20201B8
:102C30000A6842F020020A60096801F0200101914F
:102C400001994FF4807102910221CDE903100590A2
:102C5000092006900020C4F2020000F5A0503AE0DE
:102C6000002043F630010190C4F202010A6842F0EC
:102C700008020A60096801F00801019101994FF406
:102C8000704102910221CDE90310CDE90501002038
:102C9000C4F2020000F540601DE000BF002043F6D2
:102CA00030010190C4F202010A6842F004020A6095
:102CB000096801F00401019101994FF470710291CA
:102CC0000221CDE903100590032006900020C4F2F4
:102CD000020000F5006002A9FDF744FE07B0F0BD58
:102CE0002DE9F04390F83C30012B04BF0220BDE8F1
:102CF000F0834FEAB202032A00F2FC80DFE802F020
:102D0000023E7EBE036840F200471A6A43F48065C3
:102D100022F001021A621C6A1A46D3F804E052F843
:102D200018CF8E6824F00204C4F20107BD4244EAC1
:102D3000060405D1CE6824F00C0426F004063443C2
:102D40000E68BD4207D1D1E905572EF4407E45EA11
:102D50000E0545EA070E2CF073073743C3F804E06D
:102D60009F614F6809695F631C629F6947F00807AC
:102D70009F619F6927F004079F61B1E0036840F2FB
:102D800000481A6A43F4806522F010021A621C6A35
:102D90001A46D3F804C052F818EF8F6824F02004C4
:102DA000C4F20108454544EA071407D1CF686FF023
:102DB000400624F0C00406EA07163443D1F8009018
:102DC000454506D1D1E905562CF440672E4347EA24
:102DD000860C2EF4E64747EA0927C3F804C09F6132
:102DE0004F6809699F631C629F6947F400679F6190
:102DF0009F6927F480679F6171E000BF036840F21C
:102E000000481A6A43F4806522F480721A621C6AD0
:102E10001A46D3F804C052F81CEF8F6824F40074EB
:102E2000C4F20108454544EA072408D1CF6840F2BE
:102E3000FF463F0224F4406427EA06063443D1F8F3
:102E40000090454506D1D1E905562CF440572E4354
:102E500047EA061C2EF0730747EA0907C3F804C0C7
:102E6000DF614F680969DF631C62DF6947F00807AB
:102E7000DF61DF6927F00407DF6131E0036840F2BA
:102E800000451A6A43F4806722F480521A621A4697
:102E9000D3F820C05C6852F81CEFD1F800808E682F
:102EA000C4F20105AF4204D14D6924F4804444EAE0
:102EB00085142CF4005747EA06372EF4E64646EA16
:102EC00008265C60DE614E6809691E641F62DF6966
:102ED00047F40067DF61DF6927F48067DF6109027B
:102EE0001368194311600021002280F83C20084635
:102EF000BDE8F0830121002280F83C200846BDE8AF
:102F0000F0830000002804BF0120704710B504467C
:102F100090F83D0028B9002084F83C00204600F0DD
:102F20001FF8022084F83D002068211D02F076F889
:102F3000012084F8460084F83E0084F83F0084F8BD
:102F4000400084F8410084F8420084F8430084F88B
:102F5000440084F8450084F83D00002010BD0000C6
:102F600081B0006840F6FF31C4F2000188421DDDE7
:102F700040F2FF31C4F20101884237DC40F60041E3
:102F8000C4F2000188424FD00021C4F201018842FE
:102F90007DD10020009043F64000C4F20200416859
:102FA00041F00101416040685BE000BFB0F1804F3B
:102FB0004CD040F20041C4F2000188426AD040F691
:102FC0000001C4F20001884261D10020009043F664
:102FD0004000C4F20200016841F004010160006891
:102FE00000F004000090009801B0704740F20041EA
:102FF000C4F2010188423BD044F20001C4F2010155
:10300000884244D10020009043F64000C4F2020000
:10301000416841F480314160406800F480300090A4
:10302000009801B0704700BF0020009043F64000B8
:10303000C4F20200016841F008010160006800F07C
:1030400008000090009801B0704700BF0020009079
:1030500043F64000C4F20200016841F00101016042
:10306000006800F001000090009801B0704700BFB8
:103070000020009043F64000C4F20200416841F095
:1030800002014160406800F002000090009801B029
:10309000704700BF0020009043F64000C4F20200D9
:1030A000016841F002010160006800F00200009038
:1030B000009801B07047000041B1082910D00429E0
:1030C00014BF00F1410200F13F020BE090F83E20F6
:1030D000012A1CBF01207047022280F83E2013E025
:1030E00000F140021278012A1CBF01207047022221
:1030F000082907D0042914BF80F8412080F83F2018
:1031000002E000BF80F84020006801F01F010122AA
:10311000036A02FA01F123EA01020262026A114320
:1031200041F2FF72C4F20002904201620CDC40F2F4
:10313000FF71C4F20001884214DCB0F1804F37D037
:1031400040F2004116E000BF40F2FF31C4F201013D
:10315000884215DC41F60001C4F20001884227D004
:10316000002115E040F60001C4F2000188421FD0A2
:1031700040F60041C4F20001884219D01FE000BFB0
:1031800044F20001C4F20101884211D040F2004132
:10319000C4F20101884212D1416C40F2004340F474
:1031A0008062C4F2010341F400419A42416406D1B5
:1031B000816801F00701062904BF002070470168FB
:1031C00041F00101016000207047000070470000DD
:1031D00010B504460068416994F83D20212A56D173
:1031E00011F0800153D000BF206850E8050F21681E
:1031F00020F0800041E80502DAB1206850E8050FB0
:10320000216820F0800041E8050292B1206850E872
:10321000050F216820F0800041E805024AB12068CE
:1032200050E8050F216820F0800041E80502002ADF
:10323000DAD1606B002818BFFDF740F9206850E82C
:10324000030F216820F0C00041E80302DAB12068D2
:1032500050E8030F216820F0C00041E8030292B15A
:10326000206850E8030F216820F0C00041E8030205
:103270004AB1206850E8030F216820F0C00041E8FF
:103280000302002ADAD1202084F83D00206840693A
:1032900094F83E10222940F0A78010F0400000F082
:1032A000A38000BF206850E8050F216820F040008F
:1032B00041E80502DAB1206850E8050F216820F0E6
:1032C000400041E8050292B1206850E8050F2168EE
:1032D00020F0400041E805024AB1206850E8050F9F
:1032E000216820F0400041E80502002ADAD1A06BF5
:1032F000002818BFFDF7E2F8206850E8030F2168A6
:1033000020F4907041E80302BAB3206850E8030F3C
:10331000216820F4907041E8030272B3206850E8FD
:10332000030F216820F4907041E803022AB320685B
:1033300050E8030F216820F4907041E80302002A4E
:10334000DAD11AE0206850E8050F216820F001006A
:1033500041E80502DAB1206850E8050F216820F045
:10336000010041E8050292B1206850E8050F21688C
:1033700020F0010041E805024AB1206850E8050F3D
:10338000216820F0010041E80502002ADAD1206B13
:10339000012824D1206850E8030F216820F0100094
:1033A00041E80302DAB1206850E8030F216820F0F9
:1033B000100041E8030292B1206850E8030F216831
:1033C00020F0100041E803024AB1206850E8030FE2
:1033D000216820F0100041E80302002ADAD1202001
:1033E00084F83E0000202063002010BD70470000DC
:1033F000B0B582B0044600680168C368426901F054
:103400002F05202D03F0200506D12DB1204602B056
:10341000BDE8B04002F01CB85FEA017C1EBF02F0BC
:10342000010E03F4907212EB0E0253D1226B012AAB
:1034300005D111F0100218BF13F0100236D10A06A0
:1034400022D513F080021FD094F83D1021293FD1DE
:10345000A168B1F5805F03D12169002900F0728273
:10346000216A4A1C226209784160E18C01390A0410
:10347000E1842DD1C16821F08001C160C16841F0B3
:103480004001C16002B0B0BD490621D513F0400132
:103490001ED0C16821F04001C1602021204684F87F
:1034A0003D1002B0BDE8B04000F000BD0021019128
:1034B000016801914168019101994069400613D466
:1034C000A08DE18DE28D002A18BF884240F0BE81B8
:1034D00002B0B0BDCA0718BF13F4807240F0BA80C2
:1034E0004A0700F1BD80C2E0A16B0868426893B250
:1034F000002BEDD0A08D8342EAD2E285C969B1F5F7
:10350000807F00F09D80206850E8030F216820F440
:10351000807041E80302DAB1206850E8030F2168A7
:1035200020F4807041E8030292B1206850E8030F54
:10353000216820F4807041E803024AB1206850E815
:10354000030F216820F4807041E80302002ADAD1D9
:10355000206850E8050F216820F0010041E80502CD
:10356000DAB1206850E8050F216820F0010041E839
:10357000050292B1206850E8050F216820F0010093
:1035800041E805024AB1206850E8050F216820F0A3
:10359000010041E80502002ADAD1206850E8050F51
:1035A000216820F0400041E80502DAB1206850E8C7
:1035B000050F216820F0400041E8050292B1206823
:1035C00050E8050F216820F0400041E805024AB1AB
:1035D000206850E8050F216820F0400041E805020E
:1035E000002ADAD1202084F83E00002020632068E1
:1035F00050E8030F216820F0100041E80302DAB11F
:10360000206850E8030F216820F0100041E8030211
:1036100092B1206850E8030F216820F0100041E8C3
:1036200003024AB1206850E8030F216820F010001F
:1036300041E80302002ADAD1A06BFCF73FFFA08D1E
:10364000E18D401A81B2204602B0BDE8B040FFF7DC
:10365000BDBD00BF226C42F0010222644A0706D5BC
:10366000BEF1000F03D0226C42F0020222648A07EE
:1036700006D5BEF1000F03D0226C42F00402226492
:10368000BCF1000F09D545EA0E02B2FA82F25209E6
:1036900003D1226C42F008022264226C002A3FF41B
:1036A00017AF11F0200118BF002D03D0204601F004
:1036B000CFFE20684069216C00F0400001F0080155
:1036C000401800F0B58000BF206850E8030F216863
:1036D00020F4907041E80302BAB3206850E8030F69
:1036E000216820F4907041E8030272B3206850E82A
:1036F000030F216820F4907041E803022AB3206888
:1037000050E8030F216820F4907041E80302002A7A
:10371000DAD11AE0206850E8050F216820F0010096
:1037200041E80502DAB1206850E8050F216820F071
:10373000010041E8050292B1206850E8050F2168B8
:1037400020F0010041E805024AB1206850E8050F69
:10375000216820F0010041E80502002ADAD1206B3F
:10376000012824D1206850E8030F216820F01000C0
:1037700041E80302DAB1206850E8030F216820F025
:10378000100041E8030292B1206850E8030F21685D
:1037900020F0100041E803024AB1206850E8030F0E
:1037A000216820F0100041E80302002ADAD120202D
:1037B00084F83E00002020632068406940063FD521
:1037C000206850E8050F216820F0400041E805021C
:1037D000DAB1206850E8050F216820F0400041E888
:1037E000050292B1206850E8050F216820F04000E2
:1037F00041E805024AB1206850E8050F216820F031
:10380000400041E80502002ADAD1A06BC0B145F2C0
:103810005911C0F600010165FCF798FE00283FF43D
:1038200057AEA06B016D02B0BDE8B040084700BFC5
:103830002046FFF7DBFD0020206402B0B0BD00BFD2
:10384000204602B0BDE8B040FFF7D0BD401A216865
:1038500051E8031F226821F4907142E80313DBB1A1
:10386000216851E8031F226821F4907142E8031394
:1038700093B1216851E8031F226821F4907142E856
:1038800003134BB1216851E8031F226821F49071A2
:1038900042E80313002BDAD1216851E8051F2268A2
:1038A00021F0010142E80513DBB1216851E8051F51
:1038B000226821F0010142E8051393B1216851E823
:1038C000051F226821F0010142E805134BB1216870
:1038D00051E8051F226821F0010142E80513002B81
:1038E000DAD1202184F83E1000212163216851E8BB
:1038F000031F226821F0100142E80313002B3FF45C
:10390000A1AE216851E8031F226821F0100142E8AE
:103910000313002B3FF496AE216851E8031F226881
:1039200021F0100142E80313002B3FF48BAE216815
:1039300051E8031F226821F0100142E80313002B15
:10394000D4D17FE6216A31F8022B6FF35F22426007
:1039500021628AE5002804BF0120704710B50446A3
:1039600090F83D0028B9002084F83C00204600F083
:1039700021F8242084F83D002068C16821F400511A
:10398000C160204601F0E4FD2068016921F4904106
:103990000161416921F02A014161C16841F400518E
:1039A000C16000202021206484F83D1084F83E107E
:1039B00010BD00002DE9F04385B00446016841F2D6
:1039C0000000C4F20100814202D005B0BDE8F083DE
:1039D000002643F630010096C4F202014A6946F21D
:1039E000404842F010024A614A6900F5704002F016
:1039F00010020092009A00960A68C4F2020842F08F
:103A000001020A60096801F00101009100994FF478
:103A1000C06100910221CDE9011603210391072124
:103A200004916946FCF79EFF40F2A815C2F200051A
:103A30004FF000674FF480692846C5E90087C5E963
:103A40000266C5E90496C5E90666C5E90866FCF79D
:103A500073FE002818BFFCF72BFDA563AC6340F292
:103A6000082508F17800C2F200054021C5E90007E9
:103A700005F1080080E842022846C5E90566C5E967
:103A800007666E62FCF758FE002818BFFCF710FDB1
:103A90002520002100226563AC63FEF7D9FB2520B9
:103AA000FEF7C2FB05B0BDE8F083000070B582B040
:103AB000044690F83E0020280ED113460A460029FD
:103AC0004FF0010018BF002B02D102B070BD00BF43
:103AD00094F83C00012803D1022002B070BD00BF61
:103AE000012084F83C00002622202663A262A385E0
:103AF000266484F83E002168A06B45F2E12C45F273
:103B00003D4E45F26515C0F6000CC0F6000EC0F63D
:103B100000050431C0E90FCEC0E91356FCF7BEFE24
:103B2000019620680168019140680190019884F82D
:103B30003C6000BF206850E8030F216840F48070AB
:103B400041E80302E2B1206850E8030F216840F425
:103B5000807041E803029AB1206850E8030F2168A1
:103B600040F4807041E8030252B1206850E8030F2E
:103B7000216840F4807041E80302002ADAD100BFD6
:103B8000206850E8050F216840F0010041E8050277
:103B9000E2B1206850E8050F216840F0010041E8DB
:103BA00005029AB1206850E8050F216840F0010035
:103BB00041E8050252B1206850E8050F216840F045
:103BC000010041E80502002ADAD100BF206850E870
:103BD000050F216840F0400041E80502DAB1206895
:103BE00050E8050F216840F0400041E8050292B11D
:103BF000206850E8050F216840F0400041E80502C8
:103C00004AB1206850E8050F216840F0400041E8C3
:103C10000502002ADAD1002002B070BD7047000012
:103C2000704700002DE9F04381B0044690F83D0054
:103C300020280DD10F4600294FF0010000F0DD8053
:103C40001646002A00F0D98094F83C00012803D1E0
:103C5000022001B0BDE8F083012084F83C00002080
:103C6000206421201D4684F83D00FCF753FFA68404
:103C7000E684A1680646B1F5805F03D1206900287B
:103C800000F01081B8460027002084F83C00E18C49
:103C90002068002900F0908005F101090DE000BFC7
:103CA000B8F1000F28D018F8011B4160E18C0139F0
:103CB000E184E18C002900F07F8001680906EFD4DF
:103CC000B9F1000F0AD0FDB1FCF724FF801BA84218
:103CD0001AD8206801680906F6D5E1E701680906E7
:103CE000DED4016809065CBF01685FEA0161D7D4D0
:103CF00001680906F2D5D3E737F8021B4FF0000838
:103D00006FF35F21D1E700BF206850E8030F2168FF
:103D100020F4D07041E80302BAB3206850E8030FE2
:103D2000216820F4D07041E8030272B3206850E8A3
:103D3000030F216820F4D07041E803022AB3206801
:103D400050E8030F216820F4D07041E80302002AF4
:103D5000DAD11AE0206850E8050F216820F0010050
:103D600041E80502DAB1206850E8050F216820F02B
:103D7000010041E8050292B1206850E8050F216872
:103D800020F0010041E805024AB1206850E8050F23
:103D9000216820F0010041E80502002ADAD1202044
:103DA00084F83D0084F83E00002084F83C000320A5
:103DB00001B0BDE8F08300BF0168490619D4FDB128
:103DC000691C0DD10168490613D4016849065CBF1E
:103DD00001685FEA41610CD401684906F2D508E048
:103DE000FCF798FE801BA8420AD8206800684006AD
:103DF000F6D5202084F83D00002001B0BDE8F08316
:103E0000206850E8030F216820F4D07041E80302D5
:103E1000E2B3206850E8030F216820F4D07041E835
:103E200003029AB3206850E8030F216820F4D07091
:103E300041E8030252B3206850E8030F216820F4E0
:103E4000D07041E80302002ADAD11FE0206850E870
:103E5000050F216820F0010041E80502002A9ED0EC
:103E6000206850E8050F216820F0010041E80502B4
:103E7000002A3FF494AF206850E8050F216820F035
:103E8000010041E80502002A3FF489AF206850E8AC
:103E9000050F216820F0010041E80502002AD5D174
:103EA0007DE700BF4FF00008EEE60000704700001D
:103EB000FEE7000040F26820C2F20000FCF734BECA
:103EC00040F2BC20C2F20000FCF72EBE10B581B05B
:103ED00000210091806B40F22001C2F2000190F8B5
:103EE0003DC009684BF28952C908C1F2F842A1FBF2
:103EF0000212110A232251430091009911B3009933
:103F0000013900910168096889051FD50099C9B177
:103F100000990139009101680968890516D5009951
:103F200081B10099013900910168096889050DD5B1
:103F3000009939B100990139009101680968890532
:103F4000DBD403E0016C41F020010164446B4FF0CD
:103F5000000E002C1CBF0021E163816B00291CBFF7
:103F60000022CA630268002C136823F48063136084
:103F7000A0F82AE018BFC4F850E000291CBF0023B5
:103F80000B65116821F00101116090F83D10602966
:103F90000CD1202180F83D10002180F83E100164F2
:103FA00001B0BDE81040FCF7BBBD00BF0CF028011C
:103FB000282911D1116841F001011160116841F403
:103FC0008061116000210163282180F83D1001B05B
:103FD000BDE81040FDF7AEB8202180F83D1000216B
:103FE00080F83E1001B0BDE81040FDF7A3B8000016
:103FF00010B5044690F83D1090F83E00B0F1100264
:1040000018BF0122403818BF0120024208BF2229F0
:1040100034D001F0280028283AD10020206328203D
:1040200084F83D0020684168090542D5416821F4C3
:1040300000614160606B90F83510012958D1A06B88
:1040400043F6CD61C0F600010165FCF77FFA002858
:1040500061D020684169490606D50069616A087027
:10406000616A206801316162016821F0010101602B
:10407000202084F83D00A06B4BE000BF2068026860
:1040800022F4006202604268120505D50CE000BF10
:1040900020684268120507D4602905D0202184F8E1
:1040A0003D10002184F83E1000212163416809057C
:1040B000BCD494F83D10602950D1202184F83D10E3
:1040C000002121644169490606D50069616A0870CA
:1040D000616A206801316162016821F001010160BB
:1040E0002046FCF71DFD206C000717D11BE000BF28
:1040F00043F6CD61C0F600010165FCF727FA50B127
:104100002168606B0A6822F001020A60202184F8AD
:104110003D10016D8847206C000704D0206841687D
:1041200021F4E061416094F83D00216C490758BFDB
:1041300010BD282810D10020CFF6FF70E0620021CA
:104140002020216384F83D00204684F83E10BDE81D
:104150001040FDF7C1B900BF10BD00BF416949065D
:1041600005D50069616A0870606A013060622046A6
:10417000FCF7E0FF206C0007D0D1D4E7C16A428D84
:10418000042A07D10168426A4B6823F480634B60BC
:10419000096911E0428D032A16D102680229536889
:1041A00023F48063536005D0042903D0116821F4FF
:1041B000806111601169426A1170416A0131416286
:1041C000418D013941857047428D022A12D1013952
:1041D0000F2919D8DFE801F008121812181818185A
:1041E000181818181818180801680A6822F480624C
:1041F0000EE000BF0168426ACAE700BF01680A68B2
:1042000042F4806204E000BF01680A6842F4007270
:104210000A600969426A1170416A02684B1C436274
:10422000438D013B438512694A70416A026801313E
:104230004162418D01394185516821F440715160DD
:10424000202180F83D1090F83E200021402A80F87F
:104250003E1003D10163FDF783BE00BF122101634D
:10426000FDF73CB981B090F83D10222972D1418D03
:10427000042913D30168426A09691170416A013146
:104280004162418D01394185418D032962D1006828
:10429000416821F4806141605CE000BFC26A022A8B
:1042A00058D0012956D80021009140F22001C2F2D5
:1042B000000109684BF28952C908C1F2F842A1FB1A
:1042C0000212110A01EB810100910099013900915C
:1042D0000099002940D001680A6892051AD5009912
:1042E000013900910099B9B301680A68920511D5A6
:1042F000009901390091009971B301680A6892052B
:1043000008D5009901390091009929B301680A681C
:104310009205DAD40A6822F480620A604A6822F4BC
:10432000E0624A600969426A1170416A0131416282
:10433000418D01394185202180F83D1090F83E20C3
:104340000021402A80F83E1022D1016301B0FDF720
:1043500007BE00BF01B07047016C41F0200101644D
:104360000168426A4B6823F4E0634B60096911708D
:10437000416A01314162418D01394185202180F836
:104380003D10002180F83E1001B0FCF7D3BE00BF05
:104390001221016301B0FDF7A1B80000C16A90F8D5
:1043A0003D20212A18BF7047428D4AB1416A0268F8
:1043B00011F8013B13614162418D0139418570471C
:1043C00011F5803F18BF082918D101684A6822F406
:1043D000E0624A600A6842F400720A60002120220A
:1043E000016380F83D2090F83E2080F83E10402A7E
:1043F00008BFFDF7B7BDFDF773B800BF2029E4D0B3
:1044000001684A6822F4E0624A60112101630021D8
:1044100080F83E10202180F83D10FDF761B80000C3
:1044200090F83D1090F83EC0C26A038D002B08BF83
:10443000212919D0212905D0BCF1400F08BF22291C
:1044400000D07047418D69B390F83E10402908BFF5
:1044500000F040B8416A026811F8013B1361416203
:10446000418D01394185704712F5803F18BF082AF8
:104470001ED101684A6822F4E0624A600A6842F488
:1044800000720A6000212022016380F83D2090F82C
:104490003E2080F83E10402A08BFFDF763BDFDF7BF
:1044A0001FB800BF0068416821F480614160704717
:1044B000202ADED001684A6822F4E0624A601121B5
:1044C0000163002180F83E10202180F83D10FDF7A7
:1044D00007B8000090F83D10026D5AB1026D012A34
:1044E00014D10168826CD2B20A61016D013101659B
:1044F000704700BFC26C816C012A17D10268C9B233
:104500001161016D02310165704700BF026D022A21
:1045100018BF7047222911D101680A6842F48072DD
:104520000A60016D01310165704700BF0268C1F387
:1045300007211161016D0131016512E0428D5AB10F
:10454000212909D1416A026811F8013B13614162D6
:10455000418D013941857047428D002A08BF2129CC
:1045600000D0704701684A6822F4E0624A600A6835
:1045700042F400720A6000212022016380F83D208D
:1045800080F83E10FDF7EEBC80B582B0002043F607
:1045900030010190C4F202010A6842F400120A607C
:1045A0000A6802F400120192019A00900868002241
:1045B00040F4800008600868002100F4800000904A
:1045C00000980B20FDF744FE0B20FDF72DFE0D207B
:1045D00000210022FDF73CFE0D20FDF725FE1120F5
:1045E00000210022FDF734FE1120FDF71DFE2F20D3
:1045F00000210022FDF72CFE2F20FDF715FE3A20AA
:1046000000210022FDF724FE3A20FDF70DFE462092
:1046100000210022FDF71CFE462002B0BDE88040CC
:10462000FDF702BEF0B587B0002543F630000695D1
:104630000195C4F20200016841F2004441F010010A
:1046400001600168C4F2020401F0100101910199B6
:1046500001950168012241F02001016001684FF4D9
:10466000C06601F0200101910199019501680127BF
:1046700041F080010160016801F080010191019920
:104680000195016841F001010160016801F001013B
:10469000019101990195016841F0020101600168F1
:1046A00001F00201019101990195016841F00801B1
:1046B0000160016801F0080101910199019501680B
:1046C00041F00401016000684FF4C06100F0040093
:1046D000019001982046FCF717FA0220CDE9040565
:1046E00002A92046CDE90267FCF73CF907B0F0BD0E
:1046F00080B540F2682045F20041C2F20000C4F2E9
:10470000000148F2A06200234FF4804CC0F2010285
:1047100080E80E00C0E9033CC0E90533C0E9073377
:10472000FCF70AFD002808BF80BDBDE88040FBF70C
:10473000BFBE000080B540F2BC2045F60001C2F2C9
:104740000000C4F2000148F2A0620023C0F201029E
:104750004FF0020C4FF4804E80E80E50C0E9053354
:10476000C0E90733FCF7E8FC002808BF80BDBDE8BE
:104770008040FBF79DBE000080B588B040F2583005
:1047800041F600420021C2F20000C4F200020F23F1
:104790004FF0630CCDE90611CDE90411C0E9002307
:1047A000C0E9021C01618161FEF7EEF8002818BF24
:1047B000FBF77EFE40F25830C2F20000FEF7A2FB8B
:1047C000002818BFFBF774FE602001900020CDE99F
:1047D0000200059040F25830C2F2000001A9002208
:1047E000FEF77EFA002818BFFBF762FE40F2583051
:1047F000C2F20000FEF712F908B080BD80B592B099
:1048000040F2103000220021C2F20000C4F2010286
:104810000F234FF0630C1191CDE90F11CDE90D116C
:10482000CDE90B11CDE90911CDE90711CDE905114C
:10483000CDE90311CDE90111C0E90023C0E9021C53
:10484000C0E904118161FEF75DFB002818BFFBF78A
:104850002FFE40F21030C2F2000010A9FEF738F827
:10486000002818BFFBF724FE602009900020CDE946
:104870000A00CDE90C00CDE90E0040F21030C2F282
:10488000000009A90022FEF72BFA002818BFFBF749
:104890000FFE40F21030C2F2000009A90422FEF718
:1048A0001FFA002818BFFBF703FE40F21030C2F2D7
:1048B000000009A90822FEF713FA002818BFFBF729
:1048C000F7FD40F21030C2F2000009A90C22FEF7F9
:1048D00007FA002818BFFBF7EBFD00200590CDE993
:1048E0000300CDE901004FF40051089040F2103070
:1048F0000691C2F2000001A9FDF7C4FF002818BF0D
:10490000FBF7D6FD40F21030C2F20000FEF786F849
:1049100012B080BD80B58AB040F2A0300021C2F252
:1049200000004FF080420F234FF0630CCDE90811D7
:10493000CDE90611CDE90411C0E90023C0E9021C4C
:1049400001618161FEF7DEFA002818BFFBF7B0FDB8
:1049500040F2A030C2F2000008A9FDF7B9FF00281C
:1049600018BFFBF7A5FD602001900020CDE90200F3
:10497000059040F2A030C2F2000001A90022FEF72B
:10498000AFF9002818BFFBF793FD40F2A030C2F248
:10499000000001A90422FEF7A3F9002818BFFBF7C5
:1049A00087FD40F2A030C2F2000001A90822FEF704
:1049B00097F9002818BFFBF77BFD40F2A030C2F248
:1049C000000001A90C22FEF78BF9002818BFFBF7A5
:1049D0006FFD40F2A030C2F20000FEF71FF80AB0EF
:1049E00080BD000080B58AB040F2E83040F200425D
:1049F0000021C2F20000C4F200020F234FF0630C4A
:104A0000CDE90811CDE90611CDE90411C0E9002373
:104A1000C0E9021C01618161FEF774FA002818BF29
:104A2000FBF746FD40F2E830C2F2000008A9FDF7AE
:104A30004FFF002818BFFBF73BFD602001900020CE
:104A4000CDE90200059040F2E830C2F2000001A971
:104A50000022FEF745F9002818BFFBF729FD40F2B8
:104A6000E830C2F2000001A90422FEF739F900285B
:104A700018BFFBF71DFD40F2E830C2F2000001A9AB
:104A80000822FEF72DF9002818BFFBF711FD40F2B0
:104A9000E830C2F2000001A90C22FEF721F900283B
:104AA00018BFFBF705FD40F2E830C2F20000FDF749
:104AB000B5FF0AB080BD000080B58AB040F230403A
:104AC00040F600020021C2F20000C4F200020F23EF
:104AD0004FF0630CCDE90811CDE90611CDE90411C1
:104AE000C0E90023C0E9021C01618161FEF70AFAF6
:104AF000002818BFFBF7DCFC40F23040C2F2000097
:104B000008A9FDF7E5FE002818BFFBF7D1FC6020DF
:104B100001900020CDE90200059040F23040C2F241
:104B2000000001A90022FEF7DBF8002818BFFBF700
:104B3000BFFC40F23040C2F2000001A90422FEF79F
:104B4000CFF8002818BFFBF7B3FC40F23040C2F2A8
:104B5000000001A90822FEF7C3F8002818BFFBF7E0
:104B6000A7FC40F23040C2F2000001A90C22FEF77F
:104B7000B7F8002818BFFBF79BFC40F23040C2F2A8
:104B80000000FDF74BFF0AB080BD000080B58AB081
:104B900040F2784040F600420021C2F20000C4F228
:104BA00000020F234FF0630CCDE90811CDE9061187
:104BB000CDE90411C0E90023C0E9021C0161816153
:104BC000FEF7A0F9002818BFFBF772FC40F278400E
:104BD000C2F2000008A9FDF77BFE002818BFFBF712
:104BE00067FC602001900020CDE90200059040F2B2
:104BF0007840C2F2000001A90022FEF771F80028F7
:104C000018BFFBF755FC40F27840C2F2000001A942
:104C10000422FEF765F8002818BFFBF749FC40F2B4
:104C20007840C2F2000001A90822FEF759F80028D6
:104C300018BFFBF73DFC40F27840C2F2000001A92A
:104C40000C22FEF74DF8002818BFFBF731FC40F2AC
:104C50007840C2F20000FDF7E1FE0AB080BD00001E
:104C600080B592B040F2C04040F200420021C2F252
:104C70000000C4F201020F234FF0630C1191CDE943
:104C80000F11CDE90D11CDE90B11CDE90911CDE9D8
:104C90000711CDE90511CDE90311CDE90111C0E9F5
:104CA0000023C0E9021CC0E904118161FEF72AF962
:104CB000002818BFFBF7FCFB40F2C040C2F2000026
:104CC00010A9FDF705FE002818BFFBF7F1FB6020D7
:104CD00009900020CDE90A00CDE90C00CDE90E00D5
:104CE00040F2C040C2F2000009A90022FDF7F8FF1F
:104CF000002818BFFBF7DCFB40F2C040C2F2000006
:104D000009A90422FDF7ECFF002818BFFBF7D0FB30
:104D100040F2C040C2F2000009A90822FDF7E0FFFE
:104D2000002818BFFBF7C4FB40F2C040C2F20000ED
:104D300009A90C22FDF7D4FF002818BFFBF7B8FB28
:104D400000200590CDE90300CDE901004FF40051AA
:104D5000089040F2C0400691C2F2000001A9FDF7A0
:104D600091FD002818BFFBF7A3FB40F2C040C2F240
:104D70000000FDF753FE12B080BD000010B588B0F2
:104D800040F2085044F200010024C2F20000C4F2D4
:104D900001016323CDE90644CDE904440F2280E8F4
:104DA0001600C0E903348461FEF7ACF8002818BF90
:104DB000FBF77EFB6020CDE9010440F20850C2F20F
:104DC000000001A9002203940594FDF789FF002843
:104DD00018BFFBF76DFB40F20850C2F20000FDF770
:104DE0001DFE08B010BD000080B540F2505041F2E9
:104DF0000001C2F20000C4F2010100234FF00C0CCC
:104E00004FF4E13280E80E00C0E90333C0E905C386
:104E1000C361FEF79FFD002808BF80BDBDE880404C
:104E2000FBF746BBFEE70000FEE7000040F20C0087
:104E300040F21032C2F20000C2F200020188126891
:104E40005163418891638188D163C188116440F2C4
:104E5000A032C2F200020189126851634189916354
:104E60008189D163C189116440F2E831C2F2000145
:104E7000008A0968486370477047000010B588B021
:104E8000FFF7BCFCFFF7AEFDFFF744FD40F2085012
:104E900044F200010024C2F20000C4F201016323C5
:104EA000CDE90644CDE904440F2280E81600C0E9AC
:104EB00003348461FEF726F8002818BFFBF7F8FAE0
:104EC0006020CDE9010440F20850C2F2000001A9BF
:104ED000002203940594FDF703FF002818BFFBF799
:104EE000E7FA40F20850C2F20000FDF797FD40F2E9
:104EF0001034C2F2000420460021FEF7DDF82046FF
:104F00000421FEF7D9F820460821FEF7D5F82046FF
:104F10000C21FEF7D1F840F2A034C2F20004204682
:104F20000021FEF7C9F820460421FEF7C5F8204607
:104F30000821FEF7C1F820460C21FEF7BDF840F22B
:104F4000E830C2F200000021FEF7B6F808B010BD4C
:104F500070470000FDF7FEB8B0B592B0002443F6EC
:104F600040000B94CDE90944CDE907440594CDE90F
:104F70000344CDE901440094C4F202000168022513
:104F800041F080510160006800F08050009000986E
:104F900047F200000094C4F20000016841F480412F
:104FA0000160006800F480400090009801200990A2
:104FB00010200A9008200E906420CDE90F050420EF
:104FC000119006A80695CDE90C54FDF78BFA28B18F
:104FD000EFF3108072B600BFFEE700BF0F20CDE9EF
:104FE00001054FF4A05004904FF48050059001A8A3
:104FF00003210394FDF768F920B1EFF3108072B636
:10500000FEE700BF12B0B0BD4EF68850CEF20000F1
:10501000016841F4700101607047000010B540F66E
:10502000FF3E0368C4F2000E40F2004C7045C4F22B
:10503000010C27DCB0F1804F31D040F20042C4F2C5
:10504000000290422BD040F60002C4F200029042CF
:1050500025D041F6FF72C4F20002904229DC70456F
:105060003CDCB0F1804F5FD040F20042C4F200025D
:10507000904259D040F60002C4F20002904253D050
:1050800056E000BF40F60042C4F20002904206D053
:10509000604504D00022C4F201029042D9D14A688E
:1050A00023F07003134341F6FF72C4F200029042F2
:1050B000D5DD43F6FF72C4F20102904222DC42F2D7
:1050C0000002C4F2000290422ED00022C4F201027B
:1050D000904229D0604527D02AE000BF40F6004228
:1050E000C4F2000290421FD041F60002C4F2000256
:1050F000904219D041F60042C4F20002904213D00F
:1051000016E000BF44F20002C4F2010290420BD04C
:1051100044F60002C4F20102904205D044F200427B
:10512000C4F20102904203D1CA6823F440731343CE
:1051300023F080024B69D1F800E08C681A430260CA
:10514000C46240F48062C0F828E0624504BF096987
:1051500001630121416110BD806B0021C185C184C3
:10516000FEF744B9806B01684A6990F83D30212B05
:105170002DD112F080022AD00021C184016851E8AB
:10518000031F026821F0C00142E80313DBB101688C
:1051900051E8031F026821F0C00142E8031393B1F4
:1051A000016851E8031F026821F0C00142E80313BF
:1051B0004BB1016851E8031F026821F0C00142E8C9
:1051C0000313002BDAD1202180F83D1001684969D2
:1051D00090F83E20222A40F07D8011F0400179D0E5
:1051E0000021C185016851E8031F026821F4907114
:1051F00042E80313BBB3016851E8031F026821F4BE
:10520000907142E8031373B3016851E8031F026809
:1052100021F4907142E803132BB3016851E8031F96
:10522000026821F4907142E80313002BDAD11AE0EE
:10523000016851E8051F026821F0010142E80513E9
:10524000DBB1016851E8051F026821F0010142E865
:10525000051393B1016851E8051F026821F00101AF
:1052600042E805134BB1016851E8051F026821F0BF
:10527000010142E80513002BDAD1016B012924D189
:10528000016851E8031F026821F0100142E803138E
:10529000DBB1016851E8031F026821F0100142E808
:1052A000031393B1016851E8031F026821F0100154
:1052B00042E803134BB1016851E8031F026821F073
:1052C000100142E80313002BDAD1202180F83E10B0
:1052D00000210163016C41F010010164FEF786B802
:1052E0000168806B0968C90500F19F800021C185B4
:1052F000016851E8031F026821F4807142E803133A
:10530000E3B1016851E8031F026821F4807142E8AB
:1053100003139BB1016851E8031F026821F48071F7
:1053200042E8031353B1016851E8031F026821F4F6
:10533000807142E80313002BDAD100BF016851E805
:10534000051F026821F0010142E80513BBB30168A3
:1053500051E8051F026821F0010142E8051373B30B
:10536000016851E8051F026821F0010142E80513B8
:105370002BB3016851E8051F026821F0010142E8E2
:105380000513002BDAD11AE0016851E8051F026805
:1053900021F0400142E80513DBB1016851E8051F27
:1053A000026821F0400142E8051393B1016851E819
:1053B000051F026821F0400142E805134BB1016866
:1053C00051E8051F026821F0400142E80513002B57
:1053D000DAD1202180F83E10016B012925D100BFD0
:1053E000016851E8031F026821F0100142E803132D
:1053F000DBB1016851E8031F026821F0100142E8A7
:10540000031393B1016851E8031F026821F01001F2
:1054100042E803134BB1016851E8031F026821F011
:10542000100142E80313002BDAD1016B012918BFE8
:10543000FEF7F4BB818DFDF7C9BE0000806B016BE8
:10544000012918BFFEF7ECBB818D4908FDF7BEBEF0
:1054500081B090F83E10222921D183680246B3F52D
:10546000805F09D152F8281F52F8183C002B63D0F6
:1054700003685B680AE000BF52F8281F13B903698C
:10548000002BF5D003685B6803F07F030B70116895
:1054900001311160C18D01390A04C18502D001B00A
:1054A000704700BF0168CA6822F02002CA60CA685B
:1054B00022F48072CA604A6922F001024A61202106
:1054C00080F83E10016B01293ED10021016300BF2D
:1054D000016851E8031F026821F0100142E803133C
:1054E000DBB1016851E8031F026821F0100142E8B6
:1054F000031393B1016851E8031F026821F0100102
:1055000042E803134BB1016851E8031F026821F020
:10551000100142E80313002BDAD101680A68D206B1
:1055200006D5002200920A6800924968009100990D
:10553000818D01B0FDF74ABE026852686FF35F22A9
:1055400021F8022B8162A5E701B0FEF767BB0000DE
:1055500010B504460068D4E902C22369016921F448
:10556000405111430161626943EA0C01E36911434F
:10557000C268194349F20C639A431143C1604169FF
:10558000A26921F4407141F20043114340F480626A
:10559000C4F201039A42416102D1FCF759FF01E0D4
:1055A000FCF742FFE16963681922B1F5004FA0FBE7
:1055B000020123D15A00DB0FFAF702FE48F21F5115
:1055C000C5F2EB11A0FB01235A094FF69C73C0F6FC
:1055D000FF7303F1805302FB0300322303EBC0008F
:1055E000A0FB01014FF4F87000EA111000EB02106B
:1055F000C1F3421108442168886010BD9A009B0FD6
:10560000FAF7DEFD48F21F51C5F2EB11A0FB0123B2
:105610005A094FF69C73C0F6FF7302FB0300322356
:1056200003EB0010A0FB0101F02000EA511000EB99
:105630000210C1F3431108442168886010BD0000C6
:1056400010B582B0002040F250540190C2F2000424
:105650002068016801914068019001982046FDF79B
:10566000B7FDA06B40F294610068C2F2000140688F
:105670004FF40072C0F50070A1F800022046FEF75A
:1056800015FA204602B0BDE81040FDF7B1BE00009B
:10569000FEE700002DE9F041804640F29450C2F24E
:1056A00000004FF48071FAF7C3FDD8F8005045F6BA
:1056B000E0674026C0F60007402404E00136722E61
:1056C00004F101040ED06000C1B2284603220A236F
:1056D000FBF7EEFD0028F1D038460021324600F0FD
:1056E00087FAEBE7D8F8044045F6E0664025C0F6B7
:1056F0000006402707E000BF0135722D07F10107C2
:1057000008BFBDE8F0817800C1B2204603220A2319
:10571000FBF7CEFD0028EFD0304601212A4600F0ED
:1057200067FAE9E7F0B583B00446C0E9001280EDFE
:10573000020AFFF7AFFF402600276D462068029758
:10574000009070008DF80400284600F005F994EDF3
:10575000020A284600F062F90136732EEED1402687
:1057600000276D4660680297009070008DF8040075
:10577000284600F0F1F894ED020A284600F04EF9B0
:105780000136732EEED1FBF7C5F905462046002100
:1057900040F6B83200F012F820460021002200F056
:1057A0000DF8FBF7B7F9401B410845F6EA60C0F673
:1057B0000000E16000F01CFA03B0F0BD2DE9F04FED
:1057C00087B00390043045F6806A14460D46029077
:1057D0000120C0F6000A4FF0000B04AF04E000BF48
:1057E00001980130292843D04FF0FF31019051FA40
:1057F00080F081B200EB91314FF6FC738AB20B401E
:1058000021F0030103EB9202401A02F140094FEA32
:10581000800804261BE000BFC0F12800C0B206F0DB
:105820000301029A800841EA0801484412685AF8C4
:105830002110400004928DF8140038462A46234671
:10584000CDF818B000F0CCF801362C2EC8D0F01EE0
:105850001728E1D8411E48B2C0F341300A1850B2AF
:1058600002F0FC02891A039A801048FA81F1DCE701
:1058700005A02946224600F0BBF90320FBF75EF89D
:1058800007B0BDE8F08F00BF6D24322C302C2564AA
:105890002C256424200A000080B582B0019040F2DB
:1058A0005050C2F2000001A901224FF6FF73FEF72B
:1058B000B9F9019802B080BDB8B0FCF759FCFFF708
:1058C0004BFBFEF7AFFEFEF75FFEFEF797FFFFF71D
:1058D00021F8FFF787F8FFF7EFF8FFF757F9FFF721
:1058E000BFF9FFF74BFAFEF747FFFEF701FFFEF7A0
:1058F00021FFFFF779FAFFF7C1FAFFF797FA40F2B5
:105900009464C2F20004204640F20221FAF790FCAF
:1059100040F25050C2F200000168CA6842F0100222
:10592000CA6021464FF40072FEF7C0F840F2BC2175
:1059300040F268229FED070AC2F20001C2F20002A3
:1059400001A8FFF7EFFE20464FF40071FAF770FC54
:10595000FEE700BF0000C842F0B585B0044680688D
:105960004FF44052002818BF012007012068217918
:10597000ADF80B2001260DF10B0202230096FCF777
:10598000B3F80546206821790DF10D0202238DF848
:105990000D608DF80E700096FCF7A6F8FA2205430C
:1059A000206821798DF80F204FF0805204920DF17C
:1059B0000F0205230096FCF797F82843B0FA80F011
:1059C0009FED060A4509204600F028F805402046CC
:1059D00000F0B0F8284005B0F0BD00BF00007A44E8
:1059E00080B584B04FF0060C0CEB810ED0F800C0EF
:1059F0000179C2EA03408DF80BE003904FF0010EED
:105A00000DF10B0260460523CDF800E0FCF76CF8C1
:105A1000B0FA80F0400904B080BD00002DE9F043E9
:105A200083B09FED421A9FED422A20EE010A82EEDA
:105A3000000A044600F0ECF8BDEEC00A002010EEAB
:105A4000102A8DF8050020682179A2F101080125AE
:105A50000DF1050201230095FCF746F810B1002670
:105A60000FE000BF2068217901AA01230095FBF710
:105A700039FD9DF80410B0FA80F0C9064FEA5016BF
:105A800036D4206821794FF0000901270DF1070273
:105A900001238DF807900097FCF726F810B110222B
:105AA000002510E0206821790DF1060201230097FE
:105AB000FBF718FD9DF80610B0FA80F0450901F0DB
:105AC0006F0000F11002206821798DF806208DF812
:105AD000092002AA02238DF808900097FCF704F829
